{
  "_format": "hh-sol-artifact-1",
  "contractName": "BuyMeACoffee",
  "sourceName": "contracts/BuyMeACoffee.sol",
  "abi": [
    {
      "inputs": [],
      "stateMutability": "nonpayable",
      "type": "constructor"
    },
    {
      "anonymous": false,
      "inputs": [
        {
          "indexed": true,
          "internalType": "address",
          "name": "from",
          "type": "address"
        },
        {
          "indexed": false,
          "internalType": "uint256",
          "name": "timestamp",
          "type": "uint256"
        },
        {
          "indexed": false,
          "internalType": "string",
          "name": "name",
          "type": "string"
        },
        {
          "indexed": false,
          "internalType": "string",
          "name": "message",
          "type": "string"
        },
        {
          "indexed": false,
          "internalType": "uint256",
          "name": "amount",
          "type": "uint256"
        }
      ],
      "name": "NewMemo",
      "type": "event"
    },
    {
      "inputs": [
        {
          "internalType": "string",
          "name": "_name",
          "type": "string"
        },
        {
          "internalType": "string",
          "name": "_message",
          "type": "string"
        }
      ],
      "name": "buyCoffee",
      "outputs": [],
      "stateMutability": "payable",
      "type": "function"
    },
    {
      "inputs": [],
      "name": "getMemos",
      "outputs": [
        {
          "components": [
            {
              "internalType": "address",
              "name": "from",
              "type": "address"
            },
            {
              "internalType": "uint256",
              "name": "timestamp",
              "type": "uint256"
            },
            {
              "internalType": "string",
              "name": "name",
              "type": "string"
            },
            {
              "internalType": "string",
              "name": "message",
              "type": "string"
            },
            {
              "internalType": "uint256",
              "name": "amount",
              "type": "uint256"
            }
          ],
          "internalType": "struct BuyMeACoffee.Memo[]",
          "name": "",
          "type": "tuple[]"
        }
      ],
      "stateMutability": "view",
      "type": "function"
    },
    {
      "inputs": [
        {
          "internalType": "address",
          "name": "_newOwner",
          "type": "address"
        }
      ],
      "name": "updateOwner",
      "outputs": [],
      "stateMutability": "nonpayable",
      "type": "function"
    },
    {
      "inputs": [],
      "name": "withdrawTips",
      "outputs": [],
      "stateMutability": "nonpayable",
      "type": "function"
    }
  ],
  "bytecode": "0x6080604052348015600f57600080fd5b50336000806101000a81548173ffffffffffffffffffffffffffffffffffffffff021916908373ffffffffffffffffffffffffffffffffffffffff160217905550610e988061005f6000396000f3fe60806040526004361061003f5760003560e01c8063204206e1146100445780633aaa74b214610060578063865c517214610077578063880cdc31146100a2575b600080fd5b61005e600480360381019061005991906106cf565b6100cb565b005b34801561006c57600080fd5b50610075610257565b005b34801561008357600080fd5b5061008c6102b7565b604051610099919061095f565b60405180910390f35b3480156100ae57600080fd5b506100c960048036038101906100c491906109ad565b6104a4565b005b6000341161010e576040517f08c379a000000000000000000000000000000000000000000000000000000000815260040161010590610a37565b60405180910390fd5b60016040518060a001604052803373ffffffffffffffffffffffffffffffffffffffff16815260200142815260200184815260200183815260200134815250908060018154018082558091505060019003906000526020600020906005020160009091909190915060008201518160000160006101000a81548173ffffffffffffffffffffffffffffffffffffffff021916908373ffffffffffffffffffffffffffffffffffffffff1602179055506020820151816001015560408201518160020190816101dc9190610c63565b5060608201518160030190816101f29190610c63565b506080820151816004015550503373ffffffffffffffffffffffffffffffffffffffff167fe6609e3b36bf3d0e12aa4c5b518055c81016d4f091e4fa2be01ff5f2690512bb4284843460405161024b9493929190610d7d565b60405180910390a25050565b60008054906101000a900473ffffffffffffffffffffffffffffffffffffffff1673ffffffffffffffffffffffffffffffffffffffff166108fc479081150290604051600060405180830381858888f193505050506102b557600080fd5b565b60606001805480602002602001604051908101604052809291908181526020016000905b8282101561049b57838290600052602060002090600502016040518060a00160405290816000820160009054906101000a900473ffffffffffffffffffffffffffffffffffffffff1673ffffffffffffffffffffffffffffffffffffffff1673ffffffffffffffffffffffffffffffffffffffff1681526020016001820154815260200160028201805461036e90610a86565b80601f016020809104026020016040519081016040528092919081815260200182805461039a90610a86565b80156103e75780601f106103bc576101008083540402835291602001916103e7565b820191906000526020600020905b8154815290600101906020018083116103ca57829003601f168201915b5050505050815260200160038201805461040090610a86565b80601f016020809104026020016040519081016040528092919081815260200182805461042c90610a86565b80156104795780601f1061044e57610100808354040283529160200191610479565b820191906000526020600020905b81548152906001019060200180831161045c57829003601f168201915b50505050508152602001600482015481525050815260200190600101906102db565b50505050905090565b60008054906101000a900473ffffffffffffffffffffffffffffffffffffffff1673ffffffffffffffffffffffffffffffffffffffff163373ffffffffffffffffffffffffffffffffffffffff1614610532576040517f08c379a000000000000000000000000000000000000000000000000000000000815260040161052990610e42565b60405180910390fd5b806000806101000a81548173ffffffffffffffffffffffffffffffffffffffff021916908373ffffffffffffffffffffffffffffffffffffffff16021790555050565b6000604051905090565b600080fd5b600080fd5b600080fd5b600080fd5b6000601f19601f8301169050919050565b7f4e487b7100000000000000000000000000000000000000000000000000000000600052604160045260246000fd5b6105dc82610593565b810181811067ffffffffffffffff821117156105fb576105fa6105a4565b5b80604052505050565b600061060e610575565b905061061a82826105d3565b919050565b600067ffffffffffffffff82111561063a576106396105a4565b5b61064382610593565b9050602081019050919050565b82818337600083830152505050565b600061067261066d8461061f565b610604565b90508281526020810184848401111561068e5761068d61058e565b5b610699848285610650565b509392505050565b600082601f8301126106b6576106b5610589565b5b81356106c684826020860161065f565b91505092915050565b600080604083850312156106e6576106e561057f565b5b600083013567ffffffffffffffff81111561070457610703610584565b5b610710858286016106a1565b925050602083013567ffffffffffffffff81111561073157610730610584565b5b61073d858286016106a1565b9150509250929050565b600081519050919050565b600082825260208201905092915050565b6000819050602082019050919050565b600073ffffffffffffffffffffffffffffffffffffffff82169050919050565b600061079e82610773565b9050919050565b6107ae81610793565b82525050565b6000819050919050565b6107c7816107b4565b82525050565b600081519050919050565b600082825260208201905092915050565b60005b838110156108075780820151818401526020810190506107ec565b60008484015250505050565b600061081e826107cd565b61082881856107d8565b93506108388185602086016107e9565b61084181610593565b840191505092915050565b600060a08301600083015161086460008601826107a5565b50602083015161087760208601826107be565b506040830151848203604086015261088f8282610813565b915050606083015184820360608601526108a98282610813565b91505060808301516108be60808601826107be565b508091505092915050565b60006108d5838361084c565b905092915050565b6000602082019050919050565b60006108f582610747565b6108ff8185610752565b93508360208202850161091185610763565b8060005b8581101561094d578484038952815161092e85826108c9565b9450610939836108dd565b925060208a01995050600181019050610915565b50829750879550505050505092915050565b6000602082019050818103600083015261097981846108ea565b905092915050565b61098a81610793565b811461099557600080fd5b50565b6000813590506109a781610981565b92915050565b6000602082840312156109c3576109c261057f565b5b60006109d184828501610998565b91505092915050565b600082825260208201905092915050565b7f63616e27742062757920636f6666656520666f72206672656521000000000000600082015250565b6000610a21601a836109da565b9150610a2c826109eb565b602082019050919050565b60006020820190508181036000830152610a5081610a14565b9050919050565b7f4e487b7100000000000000000000000000000000000000000000000000000000600052602260045260246000fd5b60006002820490506001821680610a9e57607f821691505b602082108103610ab157610ab0610a57565b5b50919050565b60008190508160005260206000209050919050565b60006020601f8301049050919050565b600082821b905092915050565b600060088302610b197fffffffffffffffffffffffffffffffffffffffffffffffffffffffffffffffff82610adc565b610b238683610adc565b95508019841693508086168417925050509392505050565b6000819050919050565b6000610b60610b5b610b56846107b4565b610b3b565b6107b4565b9050919050565b6000819050919050565b610b7a83610b45565b610b8e610b8682610b67565b848454610ae9565b825550505050565b600090565b610ba3610b96565b610bae818484610b71565b505050565b5b81811015610bd257610bc7600082610b9b565b600181019050610bb4565b5050565b601f821115610c1757610be881610ab7565b610bf184610acc565b81016020851015610c00578190505b610c14610c0c85610acc565b830182610bb3565b50505b505050565b600082821c905092915050565b6000610c3a60001984600802610c1c565b1980831691505092915050565b6000610c538383610c29565b9150826002028217905092915050565b610c6c826107cd565b67ffffffffffffffff811115610c8557610c846105a4565b5b610c8f8254610a86565b610c9a828285610bd6565b600060209050601f831160018114610ccd5760008415610cbb578287015190505b610cc58582610c47565b865550610d2d565b601f198416610cdb86610ab7565b60005b82811015610d0357848901518255600182019150602085019450602081019050610cde565b86831015610d205784890151610d1c601f891682610c29565b8355505b6001600288020188555050505b505050505050565b610d3e816107b4565b82525050565b6000610d4f826107cd565b610d5981856109da565b9350610d698185602086016107e9565b610d7281610593565b840191505092915050565b6000608082019050610d926000830187610d35565b8181036020830152610da48186610d44565b90508181036040830152610db88185610d44565b9050610dc76060830184610d35565b95945050505050565b7f6f6e6c7920746865206f776e65722069732061626c6520746f2075706461746560008201527f20746865206f776e657200000000000000000000000000000000000000000000602082015250565b6000610e2c602a836109da565b9150610e3782610dd0565b604082019050919050565b60006020820190508181036000830152610e5b81610e1f565b905091905056fea2646970667358221220b5fe987c9a94a79f1081d7bff6eb20ab6cfe7ce47d3376f22cf1673012d3189064736f6c634300081c0033",
  "linkReferences": {},
  "deployedLinkReferences": {}
}